:100000000C9434000C9446000C9446000C9446006A
:100010000C9446000C9446000C9446000C94460048
:100020000C9446000C9446000C9446000C94460038
:100030000C9446000C9446000C9448000C94460026
:100040000C9446000C9446000C9446000C94460018
:100050000C9446000C9446000C9446000C94460008
:100060000C9446000C94460011241FBECFEFD8E03C
:10007000DEBFCDBF21E0A0E0B1E001C01D92A43001
:10008000B207E1F70E94C0000C94D9010C94000063
:100090001F921FB61F9211248F939F93AF93BF930C
:1000A0008091000190910101A0910201B0910301A2
:1000B0000196A11DB11D8093000190930101A093B1
:1000C0000201B0930301BF91AF919F918F911F9057
:1000D0001FBE1F90189582E084BD93E095BD99EFF7
:1000E00097BD80936E000895F8946091000170911F
:1000F000010180910201909103017894089580E4B8
:1001000080937C0087E880937A00089587708064EC
:1001100080937C0080917A00806480937A00809143
:100120007A0086FDFCCF8091780090917900089547
:1001300085B1837C85B9089585B18C6385B90895AF
:1001400028988BB18F738BB90895CF93DF93EC010F
:100150000E94A000C130D10520F4289ADF91CF91F0
:10016000089511F45F9AFACFC230D10511F45E9A66
:10017000F5CF239799F7289A8BB1806C8BB9EECF86
:10018000CDB7DEB764970FB6F894DEBF0FBECDBF14
:1001900084B18C6384B9209A8AB1806C8AB98AB19F
:1001A000837C8AB921988BB18C638BB9299A0E9480
:1001B0007F000E946B00789409B104700D871E8641
:1001C000812C912C14011B8A1C8A8101210131018F
:1001D00019861A861B861C861D821E821F8218861F
:1001E00019821A821B821C820E9474006B017C019E
:1001F00080E00E948600BC01C601D70129813A81B6
:100200004B815C81821B930BA40BB50B8F87988B62
:10021000A98BBA8B9B01A4E8B3E00E94A8012FEF41
:1002200033E040E050E00E94B701C901DA018C5987
:100230009F4FAF4FBF4F2F85388949895A8928175B
:1002400039074A075B0730F031E00327C982DA82B9
:10025000EB82FC820115110509F461C00E949C002B
:10026000B9B0B2FABB24B2F889B14D855E85B41637
:10027000150659F0B11449F05FEF251A350A85E0EB
:100280002816310414F0212C312CAB89BC89AB2BFE
:1002900009F048C00E94A0004C9916C0C601D701C1
:1002A0002D813E814F815885821B930BA40BB50B8A
:1002B0004F97A105B10540F04101CD82DE82EF826A
:1002C000F88631E03B8B1C8A4D9915C0C601D701D9
:1002D00029853A854B855C85821B930BA40BB50B56
:1002E0004F97A105B10538F0C986DA86EB86FC8602
:1002F00032E03B8B1C8A19990FC0C601D7018419C3
:100300009509A609B7094F97A105B10528F026015F
:10031000370131E03B8B1C8ABD861E8665CF0E946B
:1003200098009ECF2B893C892130310569F4011555
:10033000110509F4AFCF34E08316910409F4AACF74
:10034000C4010E94A500A8CF44E084169104F6CF12
:10035000A29FB001B39FC001A39F700D811D112406
:10036000911DB29F700D811D1124911D0895A1E270
:100370001A2EAA1BBB1BFD010DC0AA1FBB1FEE1F1F
:10038000FF1FA217B307E407F50720F0A21BB30B6A
:10039000E40BF50B661F771F881F991F1A9469F7E6
:1003A00060957095809590959B01AC01BD01CF0142
:0603B0000895F894FFCF50
:00000001FF
